{
    "contractName": "FundMe",
    "abi": [
        {
            "inputs": [],
            "name": "fund",
            "outputs": [],
            "stateMutability": "payable",
            "type": "function"
        }
    ],
    "bytecode": "6080604052670de0b6b3a7640000600055633b9aca0060015534801561002457600080fd5b5060a9806100336000396000f3fe608060405260043610601c5760003560e01c8063b60d4288146021575b600080fd5b60276029565b005b600054341160715760405162461bcd60e51b81526020600482015260116024820152704e6f7420656e6f7567682066756e64732160781b604482015260640160405180910390fd5b56fea264697066735822122003a0c3a95afc52d9430335d06f12efd967079c54f25d8b9252bbae79331900e764736f6c63430008130033",
    "sourcePath": "d:/Projects/solidity/remix-fundme/contracts/FundMe.sol",
    "compiler": {
        "name": "solc",
        "version": "0.8.19+commit.7dd6d404"
    },
    "functionHashes": {
        "fund()": "b60d4288"
    },
    "gasEstimates": {
        "creation": {
            "codeDepositCost": "33800",
            "executionCost": "44299",
            "totalCost": "78099"
        },
        "external": {
            "fund()": "2321"
        },
        "internal": {
            "withdraw()": "infinite"
        }
    }
}